{
  "contractName": "DevContest",
  "abi": [
    {
      "constant": true,
      "inputs": [],
      "name": "endBlock",
      "outputs": [
        {
          "name": "",
          "type": "uint256"
        }
      ],
      "payable": false,
      "stateMutability": "view",
      "type": "function"
    },
    {
      "constant": true,
      "inputs": [
        {
          "name": "",
          "type": "address"
        }
      ],
      "name": "hasVoted",
      "outputs": [
        {
          "name": "",
          "type": "bool"
        }
      ],
      "payable": false,
      "stateMutability": "view",
      "type": "function"
    },
    {
      "constant": false,
      "inputs": [
        {
          "name": "_subAddress",
          "type": "address"
        },
        {
          "name": "_index",
          "type": "uint256"
        }
      ],
      "name": "approveSubmission",
      "outputs": [
        {
          "name": "success",
          "type": "bool"
        }
      ],
      "payable": false,
      "stateMutability": "nonpayable",
      "type": "function"
    },
    {
      "constant": true,
      "inputs": [],
      "name": "getUnapprovedSubmissionAddresses",
      "outputs": [
        {
          "name": "submissions",
          "type": "address[]"
        }
      ],
      "payable": false,
      "stateMutability": "view",
      "type": "function"
    },
    {
      "constant": false,
      "inputs": [
        {
          "name": "_name",
          "type": "bytes32"
        },
        {
          "name": "_desc",
          "type": "bytes"
        },
        {
          "name": "_url",
          "type": "bytes32"
        }
      ],
      "name": "registerSubmission",
      "outputs": [
        {
          "name": "success",
          "type": "bool"
        }
      ],
      "payable": false,
      "stateMutability": "nonpayable",
      "type": "function"
    },
    {
      "constant": true,
      "inputs": [
        {
          "name": "",
          "type": "uint256"
        }
      ],
      "name": "approvedSubmissions",
      "outputs": [
        {
          "name": "",
          "type": "address"
        }
      ],
      "payable": false,
      "stateMutability": "view",
      "type": "function"
    },
    {
      "constant": true,
      "inputs": [
        {
          "name": "",
          "type": "address"
        }
      ],
      "name": "hasSubmitted",
      "outputs": [
        {
          "name": "",
          "type": "bool"
        }
      ],
      "payable": false,
      "stateMutability": "view",
      "type": "function"
    },
    {
      "constant": false,
      "inputs": [
        {
          "name": "_amount",
          "type": "uint256"
        }
      ],
      "name": "addBounty",
      "outputs": [],
      "payable": false,
      "stateMutability": "nonpayable",
      "type": "function"
    },
    {
      "constant": false,
      "inputs": [
        {
          "name": "_unfortunateSubmission",
          "type": "address"
        }
      ],
      "name": "removeVote",
      "outputs": [
        {
          "name": "success",
          "type": "bool"
        }
      ],
      "payable": false,
      "stateMutability": "nonpayable",
      "type": "function"
    },
    {
      "constant": true,
      "inputs": [],
      "name": "winningAddress",
      "outputs": [
        {
          "name": "",
          "type": "address"
        }
      ],
      "payable": false,
      "stateMutability": "view",
      "type": "function"
    },
    {
      "constant": false,
      "inputs": [
        {
          "name": "_amount",
          "type": "uint256"
        }
      ],
      "name": "releaseStake",
      "outputs": [
        {
          "name": "success",
          "type": "bool"
        }
      ],
      "payable": false,
      "stateMutability": "nonpayable",
      "type": "function"
    },
    {
      "constant": true,
      "inputs": [],
      "name": "startBlock",
      "outputs": [
        {
          "name": "",
          "type": "uint256"
        }
      ],
      "payable": false,
      "stateMutability": "view",
      "type": "function"
    },
    {
      "constant": true,
      "inputs": [
        {
          "name": "",
          "type": "address"
        }
      ],
      "name": "votedOn",
      "outputs": [
        {
          "name": "",
          "type": "address"
        }
      ],
      "payable": false,
      "stateMutability": "view",
      "type": "function"
    },
    {
      "constant": true,
      "inputs": [
        {
          "name": "",
          "type": "address"
        }
      ],
      "name": "voteCount",
      "outputs": [
        {
          "name": "",
          "type": "uint256"
        }
      ],
      "payable": false,
      "stateMutability": "view",
      "type": "function"
    },
    {
      "constant": false,
      "inputs": [
        {
          "name": "_favoriteSubmission",
          "type": "address"
        }
      ],
      "name": "vote",
      "outputs": [
        {
          "name": "success",
          "type": "bool"
        }
      ],
      "payable": false,
      "stateMutability": "nonpayable",
      "type": "function"
    },
    {
      "constant": true,
      "inputs": [
        {
          "name": "",
          "type": "bytes32"
        }
      ],
      "name": "urlDirectory",
      "outputs": [
        {
          "name": "",
          "type": "bool"
        }
      ],
      "payable": false,
      "stateMutability": "view",
      "type": "function"
    },
    {
      "constant": false,
      "inputs": [
        {
          "name": "_name",
          "type": "bytes32"
        },
        {
          "name": "_desc",
          "type": "bytes"
        },
        {
          "name": "_url",
          "type": "bytes32"
        }
      ],
      "name": "editSubmission",
      "outputs": [
        {
          "name": "success",
          "type": "bool"
        }
      ],
      "payable": false,
      "stateMutability": "nonpayable",
      "type": "function"
    },
    {
      "constant": true,
      "inputs": [
        {
          "name": "",
          "type": "address"
        }
      ],
      "name": "submissions",
      "outputs": [
        {
          "name": "submitter",
          "type": "address"
        },
        {
          "name": "isApproved",
          "type": "bool"
        },
        {
          "name": "name",
          "type": "bytes32"
        },
        {
          "name": "desc",
          "type": "bytes"
        },
        {
          "name": "url",
          "type": "bytes32"
        },
        {
          "name": "id",
          "type": "uint256"
        },
        {
          "name": "votes",
          "type": "uint256"
        }
      ],
      "payable": false,
      "stateMutability": "view",
      "type": "function"
    },
    {
      "constant": true,
      "inputs": [],
      "name": "owner",
      "outputs": [
        {
          "name": "",
          "type": "address"
        }
      ],
      "payable": false,
      "stateMutability": "view",
      "type": "function"
    },
    {
      "constant": true,
      "inputs": [
        {
          "name": "",
          "type": "uint256"
        }
      ],
      "name": "unapprovedSubmissions",
      "outputs": [
        {
          "name": "",
          "type": "address"
        }
      ],
      "payable": false,
      "stateMutability": "view",
      "type": "function"
    },
    {
      "constant": true,
      "inputs": [],
      "name": "bounty",
      "outputs": [
        {
          "name": "",
          "type": "uint256"
        }
      ],
      "payable": false,
      "stateMutability": "view",
      "type": "function"
    },
    {
      "constant": false,
      "inputs": [
        {
          "name": "_amount",
          "type": "uint256"
        }
      ],
      "name": "stake",
      "outputs": [
        {
          "name": "success",
          "type": "bool"
        }
      ],
      "payable": false,
      "stateMutability": "nonpayable",
      "type": "function"
    },
    {
      "constant": true,
      "inputs": [],
      "name": "id",
      "outputs": [
        {
          "name": "",
          "type": "uint256"
        }
      ],
      "payable": false,
      "stateMutability": "view",
      "type": "function"
    },
    {
      "constant": true,
      "inputs": [],
      "name": "highestVote",
      "outputs": [
        {
          "name": "",
          "type": "uint256"
        }
      ],
      "payable": false,
      "stateMutability": "view",
      "type": "function"
    },
    {
      "constant": true,
      "inputs": [],
      "name": "getApprovedSubmissionAddresses",
      "outputs": [
        {
          "name": "submissions",
          "type": "address[]"
        }
      ],
      "payable": false,
      "stateMutability": "view",
      "type": "function"
    },
    {
      "constant": false,
      "inputs": [],
      "name": "checkContestStatus",
      "outputs": [],
      "payable": false,
      "stateMutability": "nonpayable",
      "type": "function"
    },
    {
      "constant": false,
      "inputs": [],
      "name": "completeContest",
      "outputs": [],
      "payable": false,
      "stateMutability": "nonpayable",
      "type": "function"
    },
    {
      "constant": true,
      "inputs": [
        {
          "name": "",
          "type": "address"
        }
      ],
      "name": "stakedAmount",
      "outputs": [
        {
          "name": "",
          "type": "uint256"
        }
      ],
      "payable": false,
      "stateMutability": "view",
      "type": "function"
    },
    {
      "constant": true,
      "inputs": [],
      "name": "token",
      "outputs": [
        {
          "name": "",
          "type": "address"
        }
      ],
      "payable": false,
      "stateMutability": "view",
      "type": "function"
    },
    {
      "inputs": [
        {
          "name": "_tokenAddress",
          "type": "address"
        },
        {
          "name": "_startBlock",
          "type": "uint256"
        },
        {
          "name": "_endBlock",
          "type": "uint256"
        }
      ],
      "payable": false,
      "stateMutability": "nonpayable",
      "type": "constructor"
    },
    {
      "anonymous": false,
      "inputs": [
        {
          "indexed": true,
          "name": "_from",
          "type": "address"
        },
        {
          "indexed": false,
          "name": "_value",
          "type": "uint256"
        }
      ],
      "name": "Staked",
      "type": "event"
    },
    {
      "anonymous": false,
      "inputs": [
        {
          "indexed": true,
          "name": "_from",
          "type": "address"
        },
        {
          "indexed": false,
          "name": "_value",
          "type": "uint256"
        }
      ],
      "name": "StakeReleased",
      "type": "event"
    },
    {
      "anonymous": false,
      "inputs": [
        {
          "indexed": true,
          "name": "owner",
          "type": "address"
        }
      ],
      "name": "SubmissionRegistered",
      "type": "event"
    },
    {
      "anonymous": false,
      "inputs": [
        {
          "indexed": true,
          "name": "owner",
          "type": "address"
        }
      ],
      "name": "SubmissionApproved",
      "type": "event"
    },
    {
      "anonymous": false,
      "inputs": [
        {
          "indexed": true,
          "name": "favoriteSubmission",
          "type": "address"
        },
        {
          "indexed": true,
          "name": "who",
          "type": "address"
        },
        {
          "indexed": false,
          "name": "amount",
          "type": "uint256"
        }
      ],
      "name": "Voted",
      "type": "event"
    },
    {
      "anonymous": false,
      "inputs": [
        {
          "indexed": true,
          "name": "unfortunateSubmission",
          "type": "address"
        },
        {
          "indexed": true,
          "name": "who",
          "type": "address"
        },
        {
          "indexed": false,
          "name": "amount",
          "type": "uint256"
        }
      ],
      "name": "RemovedVote",
      "type": "event"
    }
  ],
  "bytecode": "0x6060604052341561000f57600080fd5b604051606080612e648339810160405280805190602001909190805190602001909190805190602001909190505033600160006101000a81548173ffffffffffffffffffffffffffffffffffffffff021916908373ffffffffffffffffffffffffffffffffffffffff160217905550826000806101000a81548173ffffffffffffffffffffffffffffffffffffffff021916908373ffffffffffffffffffffffffffffffffffffffff16021790555081600f81905550806010819055506001600c81905550505050612d7e806100e66000396000f300606060405260043610610175576000357c0100000000000000000000000000000000000000000000000000000000900463ffffffff168063083c63231461017a57806309eef43e146101a3578063239618b7146101f45780632a2dbe281461024e5780632ff61c84146102b857806334950dcf14610347578063388044b3146103aa57806338e43895146103fb5780633ccc1f531461041e5780633ea8b3bc1461046f57806345f54485146104c457806348cd4cb1146104ff57806349b1c25a146105285780635e3cd7bc146105a15780636dd7d8ea146105ee5780636eadb2a91461063f578063710856b71461067e57806389e14e161461070d5780638da5cb5b14610846578063910f15fc1461089b578063943dfef1146108fe578063a694fc3a14610927578063af640d0f14610962578063b3a4dc2f1461098b578063ce70d179146109b4578063de360c9b14610a1e578063f8e737ef14610a33578063f993185514610a48578063fc0c546a14610a95575b600080fd5b341561018557600080fd5b61018d610aea565b6040518082815260200191505060405180910390f35b34156101ae57600080fd5b6101da600480803573ffffffffffffffffffffffffffffffffffffffff16906020019091905050610af0565b604051808215151515815260200191505060405180910390f35b34156101ff57600080fd5b610234600480803573ffffffffffffffffffffffffffffffffffffffff16906020019091908035906020019091905050610b10565b604051808215151515815260200191505060405180910390f35b341561025957600080fd5b610261610cc8565b6040518080602001828103825283818151815260200191508051906020019060200280838360005b838110156102a4578082015181840152602081019050610289565b505050509050019250505060405180910390f35b34156102c357600080fd5b61032d60048080356000191690602001909190803590602001908201803590602001908080601f0160208091040260200160405190810160405280939291908181526020018383808284378201915050505050509190803560001916906020019091905050610d5c565b604051808215151515815260200191505060405180910390f35b341561035257600080fd5b610368600480803590602001909190505061128f565b604051808273ffffffffffffffffffffffffffffffffffffffff1673ffffffffffffffffffffffffffffffffffffffff16815260200191505060405180910390f35b34156103b557600080fd5b6103e1600480803573ffffffffffffffffffffffffffffffffffffffff169060200190919050506112ce565b604051808215151515815260200191505060405180910390f35b341561040657600080fd5b61041c60048080359060200190919050506112ee565b005b341561042957600080fd5b610455600480803573ffffffffffffffffffffffffffffffffffffffff169060200190919050506115ab565b604051808215151515815260200191505060405180910390f35b341561047a57600080fd5b61048261195d565b604051808273ffffffffffffffffffffffffffffffffffffffff1673ffffffffffffffffffffffffffffffffffffffff16815260200191505060405180910390f35b34156104cf57600080fd5b6104e56004808035906020019091905050611983565b604051808215151515815260200191505060405180910390f35b341561050a57600080fd5b610512611c05565b6040518082815260200191505060405180910390f35b341561053357600080fd5b61055f600480803573ffffffffffffffffffffffffffffffffffffffff16906020019091905050611c0b565b604051808273ffffffffffffffffffffffffffffffffffffffff1673ffffffffffffffffffffffffffffffffffffffff16815260200191505060405180910390f35b34156105ac57600080fd5b6105d8600480803573ffffffffffffffffffffffffffffffffffffffff16906020019091905050611c3e565b6040518082815260200191505060405180910390f35b34156105f957600080fd5b610625600480803573ffffffffffffffffffffffffffffffffffffffff16906020019091905050611c56565b604051808215151515815260200191505060405180910390f35b341561064a57600080fd5b610664600480803560001916906020019091905050611fac565b604051808215151515815260200191505060405180910390f35b341561068957600080fd5b6106f360048080356000191690602001909190803590602001908201803590602001908080601f0160208091040260200160405190810160405280939291908181526020018383808284378201915050505050509190803560001916906020019091905050611fcc565b604051808215151515815260200191505060405180910390f35b341561071857600080fd5b610744600480803573ffffffffffffffffffffffffffffffffffffffff16906020019091905050612369565b604051808873ffffffffffffffffffffffffffffffffffffffff1673ffffffffffffffffffffffffffffffffffffffff1681526020018715151515815260200186600019166000191681526020018060200185600019166000191681526020018481526020018381526020018281038252868181546001816001161561010002031660029004815260200191508054600181600116156101000203166002900480156108315780601f1061080657610100808354040283529160200191610831565b820191906000526020600020905b81548152906001019060200180831161081457829003601f168201915b50509850505050505050505060405180910390f35b341561085157600080fd5b6108596123d7565b604051808273ffffffffffffffffffffffffffffffffffffffff1673ffffffffffffffffffffffffffffffffffffffff16815260200191505060405180910390f35b34156108a657600080fd5b6108bc60048080359060200190919050506123fd565b604051808273ffffffffffffffffffffffffffffffffffffffff1673ffffffffffffffffffffffffffffffffffffffff16815260200191505060405180910390f35b341561090957600080fd5b61091161243c565b6040518082815260200191505060405180910390f35b341561093257600080fd5b6109486004808035906020019091905050612442565b604051808215151515815260200191505060405180910390f35b341561096d57600080fd5b61097561277a565b6040518082815260200191505060405180910390f35b341561099657600080fd5b61099e612780565b6040518082815260200191505060405180910390f35b34156109bf57600080fd5b6109c7612786565b6040518080602001828103825283818151815260200191508051906020019060200280838360005b83811015610a0a5780820151818401526020810190506109ef565b505050509050019250505060405180910390f35b3415610a2957600080fd5b610a3161281a565b005b3415610a3e57600080fd5b610a46612841565b005b3415610a5357600080fd5b610a7f600480803573ffffffffffffffffffffffffffffffffffffffff169060200190919050506129d4565b6040518082815260200191505060405180910390f35b3415610aa057600080fd5b610aa86129ec565b604051808273ffffffffffffffffffffffffffffffffffffffff1673ffffffffffffffffffffffffffffffffffffffff16815260200191505060405180910390f35b60105481565b60046020528060005260406000206000915054906101000a900460ff1681565b6000803373ffffffffffffffffffffffffffffffffffffffff16600160009054906101000a900473ffffffffffffffffffffffffffffffffffffffff1673ffffffffffffffffffffffffffffffffffffffff16141515610b6f57600080fd5b600860008573ffffffffffffffffffffffffffffffffffffffff1673ffffffffffffffffffffffffffffffffffffffff1681526020019081526020016000209050600015158160000160149054906101000a900460ff161515141515610bd457600080fd5b828160040154141515610be657600080fd5b6000816004015414151515610bfa57600080fd5b60018160000160146101000a81548160ff021916908315150217905550600a8054806001018281610c2b9190612b77565b9160005260206000209001600086909190916101000a81548173ffffffffffffffffffffffffffffffffffffffff021916908373ffffffffffffffffffffffffffffffffffffffff160217905550508373ffffffffffffffffffffffffffffffffffffffff167f980ea6acc037550d51bf720e04dd2f6b86c6144e4402588fb40ad2ae36d53ef260405160405180910390a2600191505092915050565b610cd0612ba3565b6009805480602002602001604051908101604052809291908181526020018280548015610d5257602002820191906000526020600020905b8160009054906101000a900473ffffffffffffffffffffffffffffffffffffffff1673ffffffffffffffffffffffffffffffffffffffff1681526020019060010190808311610d08575b5050505050905090565b6000610d66612bb7565b610d6e61281a565b60007f010000000000000000000000000000000000000000000000000000000000000002856000602081101515610da157fe5b1a7f0100000000000000000000000000000000000000000000000000000000000000027effffffffffffffffffffffffffffffffffffffffffffffffffffffffffffff191614151515610df357600080fd5b60007f010000000000000000000000000000000000000000000000000000000000000002836000602081101515610e2657fe5b1a7f0100000000000000000000000000000000000000000000000000000000000000027effffffffffffffffffffffffffffffffffffffffffffffffffffffffffffff191614151515610e7857600080fd5b60007f010000000000000000000000000000000000000000000000000000000000000002846000815181101515610eab57fe5b9060200101517f010000000000000000000000000000000000000000000000000000000000000090047f0100000000000000000000000000000000000000000000000000000000000000027effffffffffffffffffffffffffffffffffffffffffffffffffffffffffffff191614151515610f2557600080fd5b60001515600660003373ffffffffffffffffffffffffffffffffffffffff1673ffffffffffffffffffffffffffffffffffffffff16815260200190815260200160002060009054906101000a900460ff161515141515610f8457600080fd5b6000151560076000856000191660001916815260200190815260200160002060009054906101000a900460ff161515141515610fbf57600080fd5b600081602001901515908115158152505033816000019073ffffffffffffffffffffffffffffffffffffffff16908173ffffffffffffffffffffffffffffffffffffffff168152505084816040019060001916908160001916815250508381606001819052508281608001906000191690816000191681525050600c548160a00181815250506001600c6000828254019250508190555080600860003373ffffffffffffffffffffffffffffffffffffffff1673ffffffffffffffffffffffffffffffffffffffff16815260200190815260200160002060008201518160000160006101000a81548173ffffffffffffffffffffffffffffffffffffffff021916908373ffffffffffffffffffffffffffffffffffffffff16021790555060208201518160000160146101000a81548160ff021916908315150217905550604082015181600101906000191690556060820151816002019080519060200190611129929190612c19565b506080820151816003019060001916905560a0820151816004015560c08201518160050155905050600160076000856000191660001916815260200190815260200160002060006101000a81548160ff0219169083151502179055506001600660003373ffffffffffffffffffffffffffffffffffffffff1673ffffffffffffffffffffffffffffffffffffffff16815260200190815260200160002060006101000a81548160ff021916908315150217905550600980548060010182816111f19190612b77565b9160005260206000209001600033909190916101000a81548173ffffffffffffffffffffffffffffffffffffffff021916908373ffffffffffffffffffffffffffffffffffffffff160217905550503373ffffffffffffffffffffffffffffffffffffffff167fc6ec98d08181f4d043822050419ac67dea2e825a879df63f34a66c5079304cb260405160405180910390a260019150509392505050565b600a8181548110151561129e57fe5b90600052602060002090016000915054906101000a900473ffffffffffffffffffffffffffffffffffffffff1681565b60066020528060005260406000206000915054906101000a900460ff1681565b60003373ffffffffffffffffffffffffffffffffffffffff16600160009054906101000a900473ffffffffffffffffffffffffffffffffffffffff1673ffffffffffffffffffffffffffffffffffffffff1614151561134c57600080fd5b6000809054906101000a900473ffffffffffffffffffffffffffffffffffffffff1673ffffffffffffffffffffffffffffffffffffffff1663dd62ed3e33306000604051602001526040518363ffffffff167c0100000000000000000000000000000000000000000000000000000000028152600401808373ffffffffffffffffffffffffffffffffffffffff1673ffffffffffffffffffffffffffffffffffffffff1681526020018273ffffffffffffffffffffffffffffffffffffffff1673ffffffffffffffffffffffffffffffffffffffff16815260200192505050602060405180830381600087803b151561144457600080fd5b6102c65a03f1151561145557600080fd5b50505060405180519050905081811015151561147057600080fd5b61148582600b54612a1190919063ffffffff16565b600b819055506000809054906101000a900473ffffffffffffffffffffffffffffffffffffffff1673ffffffffffffffffffffffffffffffffffffffff166323b872dd3330856000604051602001526040518463ffffffff167c0100000000000000000000000000000000000000000000000000000000028152600401808473ffffffffffffffffffffffffffffffffffffffff1673ffffffffffffffffffffffffffffffffffffffff1681526020018373ffffffffffffffffffffffffffffffffffffffff1673ffffffffffffffffffffffffffffffffffffffff1681526020018281526020019350505050602060405180830381600087803b151561158b57600080fd5b6102c65a03f1151561159c57600080fd5b50505060405180519050505050565b6000806000600260003373ffffffffffffffffffffffffffffffffffffffff1673ffffffffffffffffffffffffffffffffffffffff168152602001908152602001600020541115156115fc57600080fd5b60011515600460003373ffffffffffffffffffffffffffffffffffffffff1673ffffffffffffffffffffffffffffffffffffffff16815260200190815260200160002060009054906101000a900460ff16151514151561165b57600080fd5b8273ffffffffffffffffffffffffffffffffffffffff16600560003373ffffffffffffffffffffffffffffffffffffffff1673ffffffffffffffffffffffffffffffffffffffff16815260200190815260200160002060009054906101000a900473ffffffffffffffffffffffffffffffffffffffff1673ffffffffffffffffffffffffffffffffffffffff161415156116f457600080fd5b600860008473ffffffffffffffffffffffffffffffffffffffff1673ffffffffffffffffffffffffffffffffffffffff168152602001908152602001600020905061178b600360003373ffffffffffffffffffffffffffffffffffffffff1673ffffffffffffffffffffffffffffffffffffffff168152602001908152602001600020548260050154612a2f90919063ffffffff16565b81600501819055506000600360003373ffffffffffffffffffffffffffffffffffffffff1673ffffffffffffffffffffffffffffffffffffffff168152602001908152602001600020819055506000600460003373ffffffffffffffffffffffffffffffffffffffff1673ffffffffffffffffffffffffffffffffffffffff16815260200190815260200160002060006101000a81548160ff0219169083151502179055506000600560003373ffffffffffffffffffffffffffffffffffffffff1673ffffffffffffffffffffffffffffffffffffffff16815260200190815260200160002060006101000a81548173ffffffffffffffffffffffffffffffffffffffff021916908373ffffffffffffffffffffffffffffffffffffffff1602179055503373ffffffffffffffffffffffffffffffffffffffff168373ffffffffffffffffffffffffffffffffffffffff167fb3606afa294668af0929a458fa147904bba4f5b9658a2591949a8ae609d2451a600260003373ffffffffffffffffffffffffffffffffffffffff1673ffffffffffffffffffffffffffffffffffffffff168152602001908152602001600020546040518082815260200191505060405180910390a36001915050919050565b600e60009054906101000a900473ffffffffffffffffffffffffffffffffffffffff1681565b6000801515600460003373ffffffffffffffffffffffffffffffffffffffff1673ffffffffffffffffffffffffffffffffffffffff16815260200190815260200160002060009054906101000a900460ff1615151415156119e357600080fd5b600260003373ffffffffffffffffffffffffffffffffffffffff1673ffffffffffffffffffffffffffffffffffffffff168152602001908152602001600020548211151515611a3157600080fd5b611a8382600260003373ffffffffffffffffffffffffffffffffffffffff1673ffffffffffffffffffffffffffffffffffffffff16815260200190815260200160002054612a2f90919063ffffffff16565b600260003373ffffffffffffffffffffffffffffffffffffffff1673ffffffffffffffffffffffffffffffffffffffff168152602001908152602001600020819055506000809054906101000a900473ffffffffffffffffffffffffffffffffffffffff1673ffffffffffffffffffffffffffffffffffffffff1663a9059cbb33846000604051602001526040518363ffffffff167c0100000000000000000000000000000000000000000000000000000000028152600401808373ffffffffffffffffffffffffffffffffffffffff1673ffffffffffffffffffffffffffffffffffffffff16815260200182815260200192505050602060405180830381600087803b1515611b9257600080fd5b6102c65a03f11515611ba357600080fd5b50505060405180519050503373ffffffffffffffffffffffffffffffffffffffff167fb1c90ce88682afb6fb54564abd065e17c4728f8cb472ff17ef458143f3f77971836040518082815260200191505060405180910390a260019050919050565b600f5481565b60056020528060005260406000206000915054906101000a900473ffffffffffffffffffffffffffffffffffffffff1681565b60036020528060005260406000206000915090505481565b6000806000600260003373ffffffffffffffffffffffffffffffffffffffff1673ffffffffffffffffffffffffffffffffffffffff16815260200190815260200160002054111515611ca757600080fd5b60001515600460003373ffffffffffffffffffffffffffffffffffffffff1673ffffffffffffffffffffffffffffffffffffffff16815260200190815260200160002060009054906101000a900460ff161515141515611d0657600080fd5b600860008473ffffffffffffffffffffffffffffffffffffffff1673ffffffffffffffffffffffffffffffffffffffff1681526020019081526020016000209050600260003373ffffffffffffffffffffffffffffffffffffffff1673ffffffffffffffffffffffffffffffffffffffff16815260200190815260200160002054600360003373ffffffffffffffffffffffffffffffffffffffff1673ffffffffffffffffffffffffffffffffffffffff16815260200190815260200160002081905550611e20600260003373ffffffffffffffffffffffffffffffffffffffff1673ffffffffffffffffffffffffffffffffffffffff168152602001908152602001600020548260050154612a1190919063ffffffff16565b81600501819055506001600460003373ffffffffffffffffffffffffffffffffffffffff1673ffffffffffffffffffffffffffffffffffffffff16815260200190815260200160002060006101000a81548160ff02191690831515021790555082600560003373ffffffffffffffffffffffffffffffffffffffff1673ffffffffffffffffffffffffffffffffffffffff16815260200190815260200160002060006101000a81548173ffffffffffffffffffffffffffffffffffffffff021916908373ffffffffffffffffffffffffffffffffffffffff1602179055503373ffffffffffffffffffffffffffffffffffffffff168373ffffffffffffffffffffffffffffffffffffffff167f174ba19ba3c8bb5c679c87e51db79fff7c3f04bb84c1fd55b7dacb470b674aa6600260003373ffffffffffffffffffffffffffffffffffffffff1673ffffffffffffffffffffffffffffffffffffffff168152602001908152602001600020546040518082815260200191505060405180910390a36001915050919050565b60076020528060005260406000206000915054906101000a900460ff1681565b6000806000600860003373ffffffffffffffffffffffffffffffffffffffff1673ffffffffffffffffffffffffffffffffffffffff16815260200190815260200160002091503373ffffffffffffffffffffffffffffffffffffffff168260000160009054906101000a900473ffffffffffffffffffffffffffffffffffffffff1673ffffffffffffffffffffffffffffffffffffffff1614151561207057600080fd5b60007f0100000000000000000000000000000000000000000000000000000000000000028660006020811015156120a357fe5b1a7f0100000000000000000000000000000000000000000000000000000000000000027effffffffffffffffffffffffffffffffffffffffffffffffffffffffffffff1916141515156120f557600080fd5b60007f01000000000000000000000000000000000000000000000000000000000000000284600060208110151561212857fe5b1a7f0100000000000000000000000000000000000000000000000000000000000000027effffffffffffffffffffffffffffffffffffffffffffffffffffffffffffff19161415151561217a57600080fd5b60007f0100000000000000000000000000000000000000000000000000000000000000028560008151811015156121ad57fe5b9060200101517f010000000000000000000000000000000000000000000000000000000000000090047f0100000000000000000000000000000000000000000000000000000000000000027effffffffffffffffffffffffffffffffffffffffffffffffffffffffffffff19161415151561222757600080fd5b8160030154604051808260001916600019168152602001915050604051809103902060001916846040518082600019166000191681526020019150506040518091039020600019161415156122b657600190506000151560076000866000191660001916815260200190815260200160002060009054906101000a900460ff1615151415156122b557600080fd5b5b801561232957600160076000866000191660001916815260200190815260200160002060006101000a81548160ff02191690831515021790555060006007600084600301546000191660001916815260200190815260200160002060006101000a81548160ff0219169083151502179055505b858260010181600019169055508482600201908051906020019061234e929190612c99565b50838260030181600019169055506001925050509392505050565b60086020528060005260406000206000915090508060000160009054906101000a900473ffffffffffffffffffffffffffffffffffffffff16908060000160149054906101000a900460ff169080600101549080600201908060030154908060040154908060050154905087565b600160009054906101000a900473ffffffffffffffffffffffffffffffffffffffff1681565b60098181548110151561240c57fe5b90600052602060002090016000915054906101000a900473ffffffffffffffffffffffffffffffffffffffff1681565b600b5481565b60008061244d61281a565b6000809054906101000a900473ffffffffffffffffffffffffffffffffffffffff1673ffffffffffffffffffffffffffffffffffffffff1663dd62ed3e33306000604051602001526040518363ffffffff167c0100000000000000000000000000000000000000000000000000000000028152600401808373ffffffffffffffffffffffffffffffffffffffff1673ffffffffffffffffffffffffffffffffffffffff1681526020018273ffffffffffffffffffffffffffffffffffffffff1673ffffffffffffffffffffffffffffffffffffffff16815260200192505050602060405180830381600087803b151561254557600080fd5b6102c65a03f1151561255657600080fd5b50505060405180519050905082811015151561257157600080fd5b6000809054906101000a900473ffffffffffffffffffffffffffffffffffffffff1673ffffffffffffffffffffffffffffffffffffffff166323b872dd3330866000604051602001526040518463ffffffff167c0100000000000000000000000000000000000000000000000000000000028152600401808473ffffffffffffffffffffffffffffffffffffffff1673ffffffffffffffffffffffffffffffffffffffff1681526020018373ffffffffffffffffffffffffffffffffffffffff1673ffffffffffffffffffffffffffffffffffffffff1681526020018281526020019350505050602060405180830381600087803b151561267157600080fd5b6102c65a03f1151561268257600080fd5b50505060405180519050506126df83600260003373ffffffffffffffffffffffffffffffffffffffff1673ffffffffffffffffffffffffffffffffffffffff16815260200190815260200160002054612a1190919063ffffffff16565b600260003373ffffffffffffffffffffffffffffffffffffffff1673ffffffffffffffffffffffffffffffffffffffff168152602001908152602001600020819055503373ffffffffffffffffffffffffffffffffffffffff167f9e71bc8eea02a63969f509818f2dafb9254532904319f9dbda79b67bd34a5f3d846040518082815260200191505060405180910390a26001915050919050565b600c5481565b600d5481565b61278e612ba3565b600a80548060200260200160405190810160405280929190818152602001828054801561281057602002820191906000526020600020905b8160009054906101000a900473ffffffffffffffffffffffffffffffffffffffff1673ffffffffffffffffffffffffffffffffffffffff16815260200190600101908083116127c6575b5050505050905090565b612822612a48565b151561282d57600080fd5b612835612a55565b1561283f57600080fd5b565b60008060008061284f612a48565b151561285a57600080fd5b3373ffffffffffffffffffffffffffffffffffffffff16600160009054906101000a900473ffffffffffffffffffffffffffffffffffffffff1673ffffffffffffffffffffffffffffffffffffffff161415156128b657600080fd5b600a805490509350600092505b838360ff1610156129c657600a8360ff168154811015156128e057fe5b906000526020600020900160009054906101000a900473ffffffffffffffffffffffffffffffffffffffff169150600860008373ffffffffffffffffffffffffffffffffffffffff1673ffffffffffffffffffffffffffffffffffffffff1681526020019081526020016000209050600d54816005015411156129bb576000600d819055508060050154600d6000828254019250508190555081600e60006101000a81548173ffffffffffffffffffffffffffffffffffffffff021916908373ffffffffffffffffffffffffffffffffffffffff1602179055505b6001830192506128c3565b6129ce612a61565b50505050565b60026020528060005260406000206000915090505481565b6000809054906101000a900473ffffffffffffffffffffffffffffffffffffffff1681565b6000808284019050838110151515612a2557fe5b8091505092915050565b6000828211151515612a3d57fe5b818303905092915050565b6000600f54431015905090565b60006010544311905090565b6000809054906101000a900473ffffffffffffffffffffffffffffffffffffffff1673ffffffffffffffffffffffffffffffffffffffff1663a9059cbb600e60009054906101000a900473ffffffffffffffffffffffffffffffffffffffff16600b546000604051602001526040518363ffffffff167c0100000000000000000000000000000000000000000000000000000000028152600401808373ffffffffffffffffffffffffffffffffffffffff1673ffffffffffffffffffffffffffffffffffffffff16815260200182815260200192505050602060405180830381600087803b1515612b5157600080fd5b6102c65a03f11515612b6257600080fd5b50505060405180519050506000600b81905550565b815481835581811511612b9e57818360005260206000209182019101612b9d9190612d19565b5b505050565b602060405190810160405280600081525090565b60e060405190810160405280600073ffffffffffffffffffffffffffffffffffffffff16815260200160001515815260200160008019168152602001612bfb612d3e565b81526020016000801916815260200160008152602001600081525090565b828054600181600116156101000203166002900490600052602060002090601f016020900481019282601f10612c5a57805160ff1916838001178555612c88565b82800160010185558215612c88579182015b82811115612c87578251825591602001919060010190612c6c565b5b509050612c959190612d19565b5090565b828054600181600116156101000203166002900490600052602060002090601f016020900481019282601f10612cda57805160ff1916838001178555612d08565b82800160010185558215612d08579182015b82811115612d07578251825591602001919060010190612cec565b5b509050612d159190612d19565b5090565b612d3b91905b80821115612d37576000816000905550600101612d1f565b5090565b90565b6020604051908101604052806000815250905600a165627a7a7230582036df694367f7c788a29e1ab478338abf075d9498952e6716aba9824e0d65ffec0029",
  "source": "pragma solidity ^0.4.11;\n\nimport \"./SafeMath.sol\";\n\n// TokenInterface allows DevContest contract to call approve function from erc20 tokens\ncontract TokenInterface {\n  function totalSupply() constant returns (uint256 totalSupply) {}\n  function balanceOf(address _owner) constant returns (uint256 balance) {}\n  function transfer(address _recipient, uint256 _value) returns (bool success) {}\n  function transferFrom(address _from, address _recipient, uint256 _value) returns (bool success) {}\n  function approve(address _spender, uint256 _value) returns (bool success) {}\n  function allowance(address _owner, address _spender) constant returns (uint256 remaining) {}\n}\n\ncontract DevContest {\n\n  /// @title DevContest - Allows any existing ERC20 token contract to facilitate a contest with submissions and voting by staking tokens into the contract.\n  /// @author Michael O'Rourke - <michael@pkt.network>\n\n  using SafeMath for uint256;\n\n  // Submissions must first get approved by contract owner to be voted on.\n  struct Submission {\n    address submitter;\n    bool isApproved;\n    bytes32 name;\n    bytes desc;\n    bytes32 url;\n    uint256 id;\n    uint256 votes;\n  }\n\n  /*\n  * State variables\n  */\n\n  // Interface for interacting with an ERC20\n  TokenInterface public token;\n\n  address public owner;\n\n  // Mappings of voter information\n  mapping (address => uint256) public stakedAmount;\n  mapping (address => uint256) public voteCount;\n  mapping (address => bool) public hasVoted;\n\n  // Mapping of where vote is\n  mapping (address => address) public votedOn;\n\n  // Mapping of whether address has submitted\n  mapping (address => bool) public hasSubmitted;\n  mapping (bytes32 => bool) public urlDirectory;\n\n  // Contract owner must manually screen and approve submissions\n  mapping (address => Submission) public submissions;\n  address[] public unapprovedSubmissions;\n  address[] public approvedSubmissions;\n\n  // Prize for winner\n  uint256 public bounty;\n\n  // Global keeping track of submissions\n  uint256 public id;\n\n  // Globals for deciding winner\n  uint256 public highestVote;\n  address public winningAddress;\n\n  // Blocktimes for contest start\n  uint256 public startBlock;\n  uint256 public endBlock;\n\n  /*\n  * Events\n  */\n\n  event Staked(address indexed _from, uint256 _value);\n  event StakeReleased(address indexed _from, uint256 _value);\n  event SubmissionRegistered(address indexed owner);\n  event SubmissionApproved(address indexed owner);\n  event Voted(address indexed favoriteSubmission, address indexed who, uint256 amount);\n  event RemovedVote(address indexed unfortunateSubmission, address indexed who, uint256 amount);\n\n  function DevContest(address _tokenAddress, uint256 _startBlock, uint256 _endBlock) {\n      owner = msg.sender;\n      token = TokenInterface(_tokenAddress);\n      startBlock = _startBlock;\n      endBlock = _endBlock;\n      // Set id to 1 to reject submissions not in approvedSubmissions\n      id = 1;\n  }\n\n    /*\n    * Submission functions\n    */\n\n    /// @dev Registers new submission that contract owner can approve\n    /// @param _name of project submission\n    /// @param _desc of project submission\n    /// @param _url of project submission\n    /// @return Success of submission register\n    function registerSubmission (bytes32 _name, bytes _desc, bytes32 _url) returns (bool success){\n\n      checkContestStatus();\n      require(_name[0] != 0);\n      require(_url[0] != 0);\n      require(_desc[0] != 0);\n      require(hasSubmitted[msg.sender] == false);\n      require(urlDirectory[_url] == false);\n\n      Submission memory newSub;\n      newSub.isApproved = false;\n      newSub.submitter = msg.sender;\n      newSub.name = _name;\n      newSub.desc = _desc;\n      newSub.url = _url;\n      newSub.id = id;\n      id += 1;\n\n      submissions[msg.sender] = newSub;\n      urlDirectory[_url] = true;\n      hasSubmitted[msg.sender] = true;\n      unapprovedSubmissions.push(msg.sender);\n      SubmissionRegistered(msg.sender);\n      return true;\n    }\n\n    /// @dev Edit submission by submitter\n    /// @param _name of project submission\n    /// @param _desc of project submission\n    /// @param _url of project submission\n    /// @return Success of submission edit\n    function editSubmission(bytes32 _name, bytes _desc, bytes32 _url) returns (bool success) {\n\n      Submission sub = submissions[msg.sender];\n      require(sub.submitter == msg.sender);\n      require(_name[0] != 0);\n      require(_url[0] != 0);\n      require(_desc[0] != 0);\n      bool isNewURL;\n      if(sha3(_url) != sha3(sub.url)) {\n        isNewURL = true;\n        require(urlDirectory[_url] == false);\n      }\n\n      if(isNewURL) {\n         urlDirectory[_url] = true;\n         urlDirectory[sub.url] = false;\n      }\n\n      sub.name = _name;\n      sub.desc = _desc;\n      sub.url = _url;\n      return true;\n    }\n\n    /// @dev Contract owner approves submissions to be shown\n    /// @param _subAddress of owner of submission to be approved\n    /// @param _index of owner address in approvedSubmissions\n    /// @return Success of approval\n    function approveSubmission (address _subAddress, uint256 _index) returns (bool success) {\n\n      require(owner == msg.sender);\n      //require(unapprovedSubmissions.length > _index);\n\n      Submission approvedSub = submissions[_subAddress];\n\n      // Cannot add same submission twice\n      require(approvedSub.isApproved == false);\n      require(approvedSub.id == _index);\n      require(approvedSub.id != 0);\n      approvedSub.isApproved = true;\n      approvedSubmissions.push(_subAddress);\n      SubmissionApproved(_subAddress);\n      return true;\n    }\n\n  /*\n  * Staking functions\n  */\n\n  /// @dev Stakes ERC20 compatible token into contract. Must call 'approve' on current token contract first.\n  /// @param _amount Desired amount to stake in contract\n  /// @return Success of stake\n  function stake(uint256 _amount) returns (bool success) {\n\n    checkContestStatus();\n    // get contract's allowance\n    uint256 allowance = token.allowance(msg.sender, this);\n    // do not continue if allowance is less than amount sent\n    require(allowance >= _amount);\n    token.transferFrom(msg.sender, this, _amount);\n    stakedAmount[msg.sender] = stakedAmount[msg.sender].add(_amount);\n    Staked(msg.sender, _amount);\n    return true;\n  }\n\n  /// @dev Releases stake of ERC20 compatible token back to user by calling `transfer`.\n  /// @param _amount Desired amount to transfer from contract\n  /// @return Success of release\n  function releaseStake(uint256 _amount) returns (bool success) {\n    require(hasVoted[msg.sender] == false);\n    require(_amount <= stakedAmount[msg.sender]);\n    stakedAmount[msg.sender] = stakedAmount[msg.sender].sub(_amount);\n    token.transfer(msg.sender, _amount);\n    StakeReleased(msg.sender, _amount);\n    return true;\n  }\n\n  /*\n  * Voting functions\n  */\n\n  /// @dev vote for favorite submissions\n  /// @param _favoriteSubmission of approved submissions participant wishes to vote for\n  /// @return Success of vote\n  function vote(address _favoriteSubmission) returns (bool success) {\n\n    require(stakedAmount[msg.sender] > 0);\n    require(hasVoted[msg.sender] == false);\n\n    Submission approvedSub = submissions[_favoriteSubmission];\n\n    voteCount[msg.sender] = stakedAmount[msg.sender];\n    approvedSub.votes = approvedSub.votes.add(stakedAmount[msg.sender]);\n    hasVoted[msg.sender] = true;\n    votedOn[msg.sender] = _favoriteSubmission;\n    Voted(_favoriteSubmission, msg.sender, stakedAmount[msg.sender]);\n    return true;\n  }\n\n  /// @dev remove vote from submission\n  /// @param _unfortunateSubmission address of approved submission participant wishes to remove vote for\n  /// @return success of vote removal\n  function removeVote(address _unfortunateSubmission) returns (bool success) {\n    require(stakedAmount[msg.sender] > 0);\n    require(hasVoted[msg.sender] == true);\n    require(votedOn[msg.sender] == _unfortunateSubmission);\n\n    Submission approvedSub = submissions[_unfortunateSubmission];\n\n    approvedSub.votes = approvedSub.votes.sub(voteCount[msg.sender]);\n    voteCount[msg.sender] = 0;\n    hasVoted[msg.sender] = false;\n    votedOn[msg.sender] = address(0x0);\n    RemovedVote(_unfortunateSubmission, msg.sender, stakedAmount[msg.sender]);\n    return true;\n  }\n\n  /*\n  * Owner functions\n  */\n\n  /// @dev Add bounty for contest winner. Contract owner must approve amount to be transferred\n  /// @param _amount of bounty to be added\n  function addBounty(uint256 _amount) {\n    require(owner == msg.sender);\n\n    uint256 allowance = token.allowance(msg.sender, this);\n    require(allowance >= _amount);\n\n    bounty = bounty.add(_amount);\n    token.transferFrom(msg.sender, this, _amount);\n  }\n\n  function completeContest() {\n    require(hasContestStarted());\n    require(owner == msg.sender);\n\n\n    uint256 subCount = approvedSubmissions.length;\n\n    for (uint8 i= 0; i<subCount; i+=1 ) {\n      address subAddress = approvedSubmissions[i];\n      Submission sub = submissions[subAddress];\n\n      //need to deal with tie case\n      if(sub.votes > highestVote) {\n        highestVote = 0;\n        highestVote += sub.votes;\n        winningAddress = subAddress;\n      }\n    }\n    payout();\n  }\n\n  function payout() internal {\n    token.transfer(winningAddress, bounty);\n    bounty = 0;\n  }\n\n  /*\n  * Helper functions\n  */\n\n  function hasContestStarted() private constant returns (bool) {\n    // Check if global block.number is greater than or equal to start block and return result\n    return block.number >= startBlock;\n  }\n\n  function hasContestEnded() private constant returns (bool) {\n    // Return only greater than result because crowdsale goes until the endblock\n    return block.number > endBlock;\n  }\n\n  function checkContestStatus() {\n    if (!hasContestStarted()) revert();\n    if (hasContestEnded()) revert();\n  }\n\n  function getUnapprovedSubmissionAddresses() constant returns (address[] submissions) {\n    return unapprovedSubmissions;\n  }\n\n  function getApprovedSubmissionAddresses() constant returns (address[] submissions) {\n    return approvedSubmissions;\n  }\n}\n",
  "sourcePath": "/Users/mokn/Development/Ethereum/DevContest/contracts/DevContest.sol",
  "compiler": {
    "name": "solc",
    "version": "0.4.18+commit.9cf6e910.Emscripten.clang"
  },
  "schemaVersion": "1.0.1",
  "updatedAt": "2018-01-19T22:44:21.576Z"
}